:1000000003308A00212B0000A0296537F3377210D6
:10001000E4322000203AE536F032F230F43AF230A1
:100020002026CD1935100001201066100000201088
:10003000661000012010202AE536F032F230F43A42
:10004000F2303A100001363084008313000803199F
:1000500037280130F800F701F70B2C28F80B2B2874
:100060004A30F700F70B32283528800B2928080082
:100070003D0EF039F7000F300805770488000000C6
:1000800008144228081008000808F700080E0F3965
:10009000F8000800831608108810081183128810D1
:1000A0000F3083160805F038880083120815000009
:1000B0000814000044207808BD000810000008144F
:1000C000000044207808BC0008100F308316080593
:1000D000880083123D0EF700F030F70577083C04E6
:1000E000F8007808BC00BC1B50283A1C88103A184D
:1000F000881400000811000008103B0EBC000F30EF
:10010000BC053C08BD0038203B080F39BC00BD00D1
:10011000382008002830A9000C30AA000130AB00BC
:100120000630AC000810881008110F30831608053F
:1001300088000810881008110F308312B6002320A1
:100140000130A8002808033C031CAE280330BD0082
:1001500038200530B6002320A80AA2280230BD00AE
:1001600038200530B6002320A8012808033C031CD2
:10017000C52829302807840083130008AD00BA0180
:100180002D08BB004A20A80AB5288A110A125E2B46
:10019000370BCB28CE284030B800CF28B80101302B
:1001A0003602B80738088038B900BA013908BB00F0
:1001B0004A2008003508073A0319E8280B3A0319C2
:1001C000ED28063A0319F528023A0319FB280029FD
:1001D0000130B600B700C8200529BA010130BB00C4
:1001E0004A200230B600232005290130B600023033
:1001F000B700C8200529BA011030BB004A200529E4
:100200000130BA003508BB004A2008000B08A800DE
:100210008B13831603178C170C1400000000831235
:100220000313A81B8B1703170C087F3903195A29CE
:100230000313A80003170D080313A90003170F08E1
:100240000313AA002808B500DA20290803178D0037
:1002500003132A0803178F0003130B08AB008B133B
:10026000831603178C170C1400000000831203136D
:10027000AB1B8B1703170C0D0E0D7F3903195A2971
:100280000313A80003170D080313A90003170F0891
:100290000313AA002808B500DA20290803178D00E7
:1002A00003132A0803178F008D0A03198F0A0313FB
:1002B00006290317031308008E30F7002908F800F9
:1002C0002808F900FA01F808031D70297908F800D8
:1002D000F9010830F702F808031D7029F7017829A1
:1002E0000310F81B7729F90DF80DF7037029F8139F
:1002F0008A110A12912B35080319EB29BD00390820
:100300000319EB29BD0703188C297F30BD02031C9C
:10031000EB290319EB2990298130BD070318EB293C
:100320003D08F700F801F901FA013608C100C117CC
:100330003708C0003808BF001830BD00BE013F1CA0
:10034000B9293C08FA07031CAB29F90A031DAB299C
:10035000F80A0319BE173B08F907031CB229F80A6B
:100360000319BE173A08B700B7173708F80703187C
:10037000BE17BE0DF80CF90CFA0CC10CC00CBF0C6A
:100380000310BD0B9E290130F7070318EB29F81B5A
:10039000D029C10DFA0DF90DF80DF7030319EB295A
:1003A000C11FE129FA0A031DE129F90A031DE12908
:1003B000F80A031DE129F80CF90CFA0CF70A0319E5
:1003C000EB293608BE003A08BE06BE1FE929F81719
:1003D000EF29F813EF29F701F801F901FA010800F4
:1003E0008318F5293D3084008313F701F801F901E2
:1003F000FA01BD01BE01BF01C0013C083B043A0443
:1004000039040319332A2030C1000310B50DB60D8D
:10041000B70DB80DBD0DBE0DBF0DC00D3C0840029F
:10042000031D1C2A3B083F02031D1C2A3A083E02FA
:10043000031D1C2A39083D02031C2D2A3908BD0260
:100440003A08031C3A0FBE023B08031C3B0FBF02D5
:100450003C08031C3C0FC0020314F70DF80DF90D06
:10046000FA0DC10B052A3D088000840A3E08800071
:10047000840A3F088000840A4008800008000408BD
:10048000AD002C08AF0003195E2A2B08B8002A081B
:10049000B7002908B6002808B500BC01BB01203010
:1004A000BA008230B9007B217A08AB007908AA0033
:1004B0007808A9007708A800AF0B452A2B08B800D8
:1004C0002A08B7002908B6002808B5003508B63C48
:1004D000B500FA013608B900B6170310B60CB70C10
:1004E000B80CFA0CF90CF80CF70CB50B6D2AB91F07
:1004F000842AF709F809F909FA09F70A0319F80A29
:100500000319F90A0319FA0A7A08AB007908AA0054
:100510007808A9007708A800AB1F9B2AAD03AD1689
:10052000A809A909AA09AB09A80A0319A90A031964
:10053000AA0A0319AB0A3B30B4009A30B300CA30A0
:10054000B200B1010A30AF002C080319AD0A8314C0
:100550002830840083132B08B8002A08B700290824
:10056000B6002808B5003408BC003308BB003208C8
:10057000BA003108B900F0217808F708031DD32A22
:100580002C0A2F020319D32A2D080319D52A0F3953
:100590002F020319CD2A0318052BAD1B052B2D1B8C
:1005A000D52A2030012B2030AD05AD1EE32AAD1237
:1005B0002C08031DAD037708AD002D30B500DA20FF
:1005C0002D08F700AD012C082F02031DF12A770832
:1005D000AD002E30B500DA202D08F7002030AD0533
:1005E00000303030AD1E012BAD122C08031DAD03C1
:1005F0007708AD002D30B500DA202D08F700AD01E9
:100600003030F7077708B500DA2083103408B800D7
:100610003308B7003208B6003108B500BC01BB0191
:10062000BA010A30B900F0217A08B4007908B300A1
:100630007808B2007708B100AF0BA72A8A110A1216
:10064000D22B03081F398300613083168F0090017D
:100650000F088312A701A601831603170908C039E2
:10066000890003131F129F120030031788008312A2
:100670008701880189018313FF30831603138500E6
:1006800003170908C039890003131F129F12013094
:10069000031788000030F800831203131F08C339C2
:1006A00078049F001F139F1783169F1783121F1430
:1006B000031787018801890103138A280130B600D6
:1006C000B700C820043003178D0000308F000313DB
:1006D00006210130B6000230B700C8200A300317E7
:1006E0008D0000308F00031306210430A800FA307B
:1006F000B6002320A80B772B143003178D00003091
:100700008F00031306219F149F18842B83161E0845
:100710008312A0001E08A1002108A9002008A8003B
:100720005C297A08B8007908B7007808B60077081D
:10073000B500BC01BB014830BA007A30B9007B215A
:100740007A08A5007908A4007808A3007708A20019
:10075000173003178D0000308F000313062101307E
:10076000B600B700C8201A3003178D0000308F0084
:10077000031306210130B6000230B700C820203034
:10078000B500DA202030B500DA2089308400250851
:10079000AB002408AA002308A9002208A800023000
:1007A000AC003F2A2030B500DA204330B500DA2013
:1007B0002030B500DA200430A800FA30B60023203B
:0807C000A80BDD2B832B630065
:04400E00F42FFF3F4D
:00000001FF
;PIC16F887
;CRC=2775  CREATED="24-oct.-20 15:40"
